:02000002B0004C
:1040000000400B00EC960B00000006000C000502BF
:084010000401E50C00000000B2
:0440180050810B00C8
:10401C0009480A49884208B505D0094A824202D0AB
:10402C00121A03F033FF0748074A0021121A03F053
:10403C003BFF014808BD00BF74E5032058960B00F8
:10404C00E0E50320E0E50320EDE7032070B5074E23
:10405C00074C03F0B3FAA41BA4080025AC4200D112
:10406C0070BD56F8043B98470135F7E708960B00EE
:10407C002C960B0000F016BD08B500F0AFFDBDE8A6
:10408C00084003F053BA02F021BC02F01FBC02F04E
:10409C0025BC000008B5034A03490C2002F06AFB5A
:1040AC00FEE700BFB1660B0064810B000078B0FA2C
:1040BC0080F04009704701230370704708B502F087
:1040CC00F9FA034B1860BDE8084002F063BB00BF6F
:1040DC0040E7032003682BB14268934202D2184692
:1040EC0003F0CCBE0020704738B50568044645B1D6
:1040FC0043689D4205D2284603F016FF0130054463
:10410C002560204638BDF8B5044647680D4621B9F0
:10411C0003687A1C4260D955F8BD084603F004FFC9
:10412C00A368461CF2199A42F6D8206832462946F2
:10413C00384403F0ABFE606830446060ECE700008C
:10414C0038B504460B46D0E901012568044A091A22
:10415C00284402F0CBFB636801300344636038BD34
:10416C0079810B0038B504460B46D0E9010125686E
:10417C00044A091A284402F0B9FB6368013003446D
:10418C00636038BD7C810B0008B500234377006861
:10419C0002F056FFBDE8084002F0EBB82DE9F04301
:1041AC008F188FB0B942CDE905170646894690465F
:1041BC0080F0C28005A80D88FFF796FF0368BB420C
:1041CC0080F0BA8005980378412B49D1013003F077
:1041DC0055FE052837DDFF2447F276239D4200F07B
:1041EC00D38041D847F261239D4200F0A88047F26A
:1041FC0064239D426BD046F670539D4241D1784D5D
:10420C00784EDFF8F4810598B84280F095800378F9
:10421C00412B4BD1013003F031FE052839DDFF2451
:10422C0005A8FFF761FFDDF814902946484603F016
:10423C0071FE014600283DD1204603F08BFC05A8F9
:10424C00FFF752FFDFE70598013003F017FE002857
:10425C00C1DB0598013003F011FE0E30C4B2BBE790
:10426C0005A8FFF737FFF9E747F264739D424FD07B
:10427C0047F276739D4200F0978047F261739D423E
:10428C006FD00023CDE9013302220092728B1946C4
:10429C003AE00598013003F0F1FD0028BFDB0598EA
:1042AC00013003F0EBFD0E30C4B2B9E705A8FFF7FF
:1042BC0011FFF9E73146484603F02CFE28B1414680
:1042CC00484603F027FE0028B9D10121B4E70AAB18
:1042DC004549079307A810230025CDE90853FFF79C
:1042EC0012FF07A82146FFF72BFF204603F05CFCCA
:1042FC00014607A8FFF736FF089BCDE90155013BA6
:10430C000093079B2A461421304600F083FA13E0F1
:10431C0005A8FFF7E9FE03689F420DD9A4B201215D
:10432C00204603F017FC05A8FFF7D4FE011E18BFAA
:10433C000121204603F01FFC0FB0BDE8F0830AAB4F
:10434C00079307A8102329490025CDE90853FFF747
:10435C00DAFE07A82146FFF7F3FE204603F037FCF0
:10436C00C6E705A8FFF7C0FE03689F42E4D9A4B2D4
:10437C000121204603F0EEFB05A8FFF7ABFE01463A
:10438C00204603F03BFCD7E720468DF8284001F08F
:10439C00F1FF03460AA823B1154A934201D098476E
:1043AC00CAE701F0E4FFC7E705A8FFF79DFE059BF0
:1043BC008DF81C40A3EB0901A8EB01012046CDE9C7
:1043CC000A310C9101F0E0FF03460AA907A823B1BA
:1043DC00084A934201D09847AEE701F0C9FFABE71A
:1043EC0080810B0083810B008B810B008E810B0075
:1043FC007B630B007D630B0087810B002DE9F04183
:10440C008CB004AF044605220068391D03F02DF969
:10441C0098B3052804D000202037BD46BDE8F081B4
:10442C00B7F805305BBA9AB2A7F80530B7F8073081
:10443C005BBA1FFA83F8A7F80730002AEBD03B7958
:10444C0023BB01F0ADFF0246E060607FB7F8073098
:10445C00C0B9B7F80510012914D1092B0FD0C82BFE
:10446C0001D0042BD8D1012562612046657700F07C
:10447C007FFAFFF723FE01F07CFF0120CCE703233A
:10448C006377C9E7581F18BF0120C5E7B8F5806FDF
:10449C0003D92046FFF778FEEFE708F108036E46D4
:1044AC00DB08A6EBC3039D4604AD206842462946B3
:1044BC0003F0DBF880454FF000007FD1B7F80730F0
:1044CC00E85401F06DFF3B79E060142B00F0A680FE
:1044DC0048D80F2B00F0A28007D8022B48D0062B0F
:1044EC0051D02046FFF750FE58E0112BF9D1002394
:1044FC003B70B7F807302B449D42C7E903534DD2AC
:10450C0007F10C00D5F80080FFF7EEFDFB68B7F85B
:10451C0007105D1B4D1BC7E905357B68FD61C3F3B7
:10452C000F236383644B984500F0BF8000F28C80AE
:10453C00A3F57F236FF400721344984500F09D801F
:10454C0079D8A3F50033063B984500F09C8003F521
:10455C000033033398456BD107F11401384601F051
:10456C0007FF65E0292B1BD0372B17D01D2BB8D19B
:10457C00637F43B901236377204600F0F9F9FFF715
:10458C009DFD01F0F6FE0023C821B7F8052000912F
:10459C00CDE901331946204600F03CF901200DE02D
:1045AC00A3681BB9402002F091F9A060B7F807800E
:1045BC00A8444545C7E9055802D30020B5462BE76A
:1045CC0029464022A06803F0B7FCA368002583F8B5
:1045DC003F5007F11400FFF787FD036898451BD97E
:1045EC00786920B1BB69984214D203F04BFC85B2B8
:1045FC00206802F025FD2368A2685A631D870023FA
:10460C00637701F0CDFEA0F59C500838C4E9030097
:10461C006061C3E72846EAE75025E9E77B68B7F80D
:10462C000720C3F30F23638329462046FFF7B6FD0B
:10463C0000236383B2E7214B9845F9D107F11401AC
:10464C00384601F095FEF3E71D4B984521D003F158
:10465C009F6303F5003303F5807398451FD003F176
:10466C006E4303F5302303F586739845E0D107F1CB
:10467C001401384601F07CFEDAE707F114013846E4
:10468C0001F076FED4E707F11401384601F070FE14
:10469C00CEE707F11401384601F06AFEC8E707F1CE
:1046AC001401384601F064FEC2E707F114013846E4
:1046BC0001F05EFEBCE700BF7666730064626700C3
:1046CC0061636F6E2DE9F04104468CB00D46FFF727
:1046DC00F5FC637F022B1ED0237F628B0133DBB290
:1046EC002377AAB9022B13D8206802F071FBA8B16A
:1046FC0025B9206802F04AFC00280FDD2046FFF7A0
:10470C007DFE0028F5D1206802F09AFC01F031FE04
:10471C00237F013B23770CB0BDE8F08101F040FE14
:10472C000546206802F054FB677F012F064624D112
:10473C0020B965612046FFF727FDE9E7E3684FF2F2
:10474C001862EB1A9342F5D84AF6C872934203D812
:10475C002369EB1A9342DBD9636941F27072EB1A4D
:10476C009342D5D90023CDE9013300931A46062193
:10477C00204600F04FF86561CAE7002FC8D1636985
:10478C00EB1A40B141F270729342C1D9206802F029
:10479C0057FC6777BCE741F288329342B8D920685E
:1047AC0002F04EFCD4F800C0DCF834E0BCF83880E1
:1047BC00BEF1000F1BD0334642467146604602F0F4
:1047CC0089FA0128D7D163680593012518462583FA
:1047DC0003F0AAFB0022CDE90122059B00902A469A
:1047EC001D21204600F016F82369636190E7084B01
:1047FC0006930CF120070FCF07AE0FC63B68337042
:10480C004246734606A9604602F044FBD9E700BF56
:10481C000C930B002DE9F04F83B000AF04460068F9
:10482C003D6B884616469946EB4602F0D1FA0028B5
:10483C007FD0B8F11D0F04D84C4B23FA08F3DB07DB
:10484C0002D4637F012B74D146B9668B36B9238BA6
:10485C0001339BB2002B71D02383268BA8F10C0360
:10486C00082B16D8D4E90323934238BF134603F11F
:10487C00420A01F095FDAAEB0000002860DB002144
:10488C002046FFF71FFF01F08BFDAAEB000000286C
:10489C00F5DAB9F1000F5AD06B1D7A6B002ABA6B9E
:1048AC0008BF002203EB020A0AF1070323F00703F7
:1048BC00ADEB030DBB6BC7F804D0EA18C2F30723AA
:1048CC0076BA43EA02238DF80080ADF80160ADF8AA
:1048DC000330B9F1000F3CD0002D3AD02A4649469E
:1048EC000DF1050003F0D2FA681D7B6B3BB1BB6B7D
:1048FC002BB11A467B68796B184403F0C7FA002574
:10490C0055452AD2AAEB05027B682068B2F5806F68
:10491C0028BF4FF48062591902F00DF906460020A9
:10492C0001F03CFDBEB9206802F08AFB667701F00D
:10493C0020FD0C37DD46BD46BDE8F08F01238BE72B
:10494C00217F0029A5D12046FFF7BCFEA1E7052356
:10495C00A3E70520C9E73544D2E703D02046FFF78B
:10496C0013FCE6E701F01CFD2061E2E745000020A6
:10497C0000B595B004AB002201934F230093029233
:10498C00034B1121FFF746FF15B05DF804FB00BF88
:10499C00F4810B00F0B5ADF2244D08AB00240546B4
:1049AC000F46059305A84FF480630E491646CDE9D2
:1049BC000643FFF7A8FB394605A8FFF7C1FB3146B4
:1049CC0005A8FFF7BDFB069B013B0093CDE9014415
:1049DC00059B224614212846FFF71CFF0DF2244D9F
:1049EC00F0BD00BF91810B0070B5ADF5856D002455
:1049FC0005920AAA05460E46079207A84FF4806254
:104A0C001149CDE90842FFF77EFB314607A8FFF7B5
:104A1C0097FBDDE90801079E059B0C4A091A3044F7
:104A2C0001F064FF431C089803440893013B009376
:104A3C00CDE90144079B224614212846FFF7EAFEE4
:104A4C000DF5856D70BD00BF91810B0094810B003D
:104A5C0010B5104C0021012001F01CFF204602F083
:104A6C0039FB04F11C0002F0DBFC0B4A0B48002361
:104A7C00C2E90043C2E90233C2E904339361938370
:104A8C006363238700F080F9BDE8104004480721D8
:104A9C0000F0FCBF00E60320E0E50320B4E60320B1
:104AAC0040E603202DE9F04194B002F059FC4FF49C
:104ABC00165102F049FC02F0ABFF02F0B3FB02F01E
:104ACC00A7FF4049404D02F0A9FBA223AC22A7212D
:104ADC00009302A8EA2302F0E7FC03AC40F6B830DE
:104AEC0001F05CFC0FCC09AF0FC723683B70374B50
:104AFC006B6001F055FCA0F59C5008380DF1240CAE
:104B0C00C5E903006861BCE80F000FAE0FC62C6846
:104B1C003B6833700FAF41F6907323870FCF4FF084
:104B2C000008C4F8348020340FC43368237044F276
:104B3C004F66286802F084FA85F81D8001F030FC7D
:104B4C0004466B7F012B0CD001F02AFC001BB042F9
:104B5C0004D800212846FFF7B5FDF2E76B7F012B47
:104B6C00E7D102F055FF0146194800F035FA28B993
:104B7C0002F0F6FB174902F0D0FDFEE7164800F0F4
:104B8C00B3FF134800F0BBF9134800F003FC0121FC
:104B9C00114801F0EDF8104800F06AFE01210820E0
:104BAC0002F0D8FF0121062002F0D4FF01210720DA
:104BBC0002F0D0FF0321132014B0BDE8F04102F045
:104BCC00C9BF00BF801A0600E0E5032097810B00E7
:104BDC00B4E60320B8810B0040E603202DE9F04138
:104BEC006248634E634D00F009F904465F4800F0DB
:104BFC0008F9002107466048FFF764FD5D4800F0A6
:104C0C009CFF317801B1012128464FF0000801F0DA
:104C1C00AFF85848C5F81080022101F0A2FB337898
:104C2C00002B63D0C5F814800021082002F0A3FFEC
:104C3C000021072002F09FFF0021062002F09BFFBD
:104C4C00332C57D90121082002F095FF00210720B1
:104C5C0002F091FF0021062002F08DFF40F2FF329E
:104C6C0045480121FFF796FE002243480221FFF739
:104C7C0091FE00224048414D0321FFF78BFE3D4839
:104C8C0000F074FF08B100232B603A4800F078FF65
:104C9C0008B101232B60374800F07CFF08B10223D8
:104CAC002B60132002F080FF30B13378962083F014
:104CBC000103337002F014FC2B68012B49D0022B3A
:104CCC004ED05BB92E492B4802F014FD0A22214626
:104CDC00284802F02CFD274802F013FD254800F06F
:104CEC00C7FDBDE8F0410A2002F0FABB4FF00113FA
:104CFC006B6199E7042C4FF000014FF0080011D9BB
:104D0C0002F039FF0121072002F035FF00210620B7
:104D1C0002F031FF002218480121FFF73BFE40F260
:104D2C00FF32A2E702F027FF0021072002F023FF49
:104D3C000121062002F01FFF0F4800220121FFF77E
:104D4C0029FE00220C480221FFF724FE40F2FF321C
:104D5C0090E70C49074802F0CDFC0A223946B7E728
:104D6C00054822460021FFF73FFEB7E7B4E60320D3
:104D7C003CE6032040E60320E0E50320B0E60320F8
:104D8C00DF810B00E6810B00704710B504466021F3
:104D9C00006802F079FA206802F081FAB0FA80F02B
:104DAC00400910BD38B505460C460068602102F07C
:104DBC006BFA2868036821469B689847286800218D
:104DCC0002F069FA08B1002038BD2868022260217F
:104DDC0002F057FA286803681B6998470028F2D03C
:104DEC00286803685B6998470446286803685B6910
:104DFC009847E4B244EA002080B2E5E70821FFF7C7
:104E0C00D1BF0921FFF7CEBF0C21FFF7CBBF70B587
:104E1C0004460E4600686021154602F035FA2068FB
:104E2C00036831469B68984720680368E9B29B6821
:104E3C00984720680368290A9B689847206802F005
:104E4C002EFAB0FA80F0400970BD70B504460D46DC
:104E5C001646FFF7A7FF00F47F4040EA06022946FA
:104E6C002046BDE87040FFF7D2BF70B504460D4632
:104E7C001646FFF797FFC0B240EA062229462046A5
:104E8C00BDE87040FFF7C3BF08B5FFF78BFFC0F359
:104E9C00072008BD2DE9F04104469DF818700D4619
:104EAC00984616466AB1FFF77DFFC0B200EA0803C8
:104EBC0043EA07022946204636B1BDE8F041FFF728
:104ECC00C4BFFFF7E1FFF1E7BDE8F041FFF7CDBF4D
:104EDC00B1F5A07F07B50ED29F290ED84F298CBFF4
:104EEC0040230023009301223F230321FFF7D2FF2D
:104EFC0003B05DF804FBC023F4E78023F2E707B5A9
:104F0C0000210091FE230122FFF7C4FF03B05DF8DE
:104F1C0004FB072907B50FD803290FD810D0022995
:104F2C000CBF0423002300930122F1230321FFF77C
:104F3C00B1FF03B05DF804FB0E23F4E70C23F2E79A
:104F4C000823F0E707B5002300930122FE23032179
:104F5C00FFF7A0FF03B05DF804FB07B50F298CBF6A
:104F6C000823002300930022F7230321FFF792FF6D
:104F7C0003B05DF804FB07B5022300930122EF2375
:104F8C000421FFF787FF03B05DF804FBC72907B5C1
:104F9C0016D8B32916D89F2916D88B2916D8772955
:104FAC0016D8632916D84A2994BF002101210091F3
:104FBC00F82300220421FFF76DFF03B05DF804FB1A
:104FCC000721F4E70621F2E70521F0E70421EEE7DB
:104FDC000321ECE70221EAE738B5044608462160D4
:104FEC0002F020F92046FFF7D0FE054610B9002547
:104FFC00284638BD2046FFF707FFB0F5C37FF6D132
:10500C002046C821FFF7C2FF20462821FFF760FF8A
:10501C0020460821FFF77DFF10212046FFF79DFF5A
:10502C002046FFF7A8FF2046FFF78CFFE0E770470C
:10503C0010B510210446FFF72AF8204610BD0000D9
:10504C0010B5044B03600446C06A08B101F046FC7D
:10505C00204610BD48870B0010B50446FFF7F0FF43
:10506C0020465021FFF713F8204610BD002910B53B
:10507C004BDBB0F90C408C4247DD002A45DBB0F924
:10508C000E40944241DD847E022C1FD0032C26D08E
:10509C00012C04D10489D24314440A4621B2012BB9
:1050AC0023D0022B32D083BB002A13460489C06A5A
:1050BC00B8BFD31DDB1013FB041102F00702012350
:1050CC009340425C22EA030242541EE00489013CF4
:1050DC00611A4489D243224409B212B2DFE74489EF
:1050EC00013C641A114622B2D9E7002A04891346FE
:1050FC00B8BFD31DDB1013FB0411C36A02F0070009
:10510C0001228240585C02435A5410BD002A1346B7
:10511C000489C06AB8BFD31DDB1013FB041102F065
:10512C000702012303FA02F2435C5A40CCE70EB4A7
:10513C0003B503AB002153F8042B019302F015FBCC
:10514C0002B05DF804EB03B07047000073B5044681
:10515C0008462279A36832B1A3B90B4902B0BDE865
:10516C00704002F0C7BA094A267B094D0949647B95
:10517C00012E18BF2946CDE900140749FFF7D7FFC8
:10518C0002B070BD054AEFE756820B00EB810B00B5
:10519C0052820B004E820B006C820B0045820B007E
:1051AC0070B504461D46002600F082FE114B2360AC
:1051BC00666215B902F02CFC0546FF2384F83330E7
:1051CC0084F836309DF9103084F837300A4BA363DD
:1051DC00012384F83C30059BA3644FF6FF72069BB9
:1051EC00A286C4E90A562664A4F84460E364204607
:1051FC0070BD00BF48870B0094820B00F8B50446C5
:10520C00806A0D4690B194F9301002F041F8A06A12
:10521C00036800219B689847A06A036829469B682D
:10522C009847A06ABDE8F84002F039B894F93530D7
:10523C00014698B202F09FFC606A20B12946BDE895
:10524C00F84002F089BB0826802794F9330005EA60
:10525C00070180B202F08FFC94F93400012180B276
:10526C0002F089FC94F93400002180B202F083FC36
:10527C00013E4FEA5707E8D1F8BD38B50446806ABD
:10528C000D4680B1A16C01F0C9FF002D204614BF62
:10529C00A721A621FFF7B2FFA06A88B1E16CBDE897
:1052AC00384001F0BBBF606A18B104F1380102F05C
:1052BC00E5FA94F93600002180B202F05CFCE4E7D8
:1052CC0094F93600012180B202F055FC606A18B1E5
:1052DC00BDE8384002F0B8BA38BD2DE9F8430446B1
:1052EC00806A0D468F1840B394F9301001F0D0FF4E
:1052FC00A06A036800219B6898470126AF42A06A08
:10530C0017D01F2E0CD901F0CAFF94F93010A06AE7
:10531C0001F0BEFFA06A036800219B689847012634
:10532C00A06A15F8011B036801369B689847F6B212
:10533C00E4E7BDE8F84301F0B2BF94F9353001461B
:10534C0098B202F018FCBD4222D0606A15F8019B9D
:10535C0018B1494602F000FBF5E708264FF080082B
:10536C0094F9330009EA080180B202F004FC94F9C4
:10537C003400012180B202F0FEFB94F934000021CC
:10538C0080B202F0F8FB013E4FEA5808E8D1DAE7A8
:10539C00BDE8F883B0F90A30DA1D48BF03F10E02FC
:1053AC00B0F90830C06AD2105A43002102F07CBD1B
:1053BC002DE9FF411E46C36A9DF8288004460F461E
:1053CC001546C3B12046FFF7E5FFB4F90A00B4F95E
:1053DC000810202821DC202301222038CDE90132BD
:1053EC0000EBD07073237339009301EBD171894BAF
:1053FC0040F34F0221E0B0F90A30D81D48BF03F149
:10540C000E00B4F90830C010584301F05FFAE062A6
:10541C000028D7D104B0BDE8F0814038C0F3C032C9
:10542C0002FA80F240230120CDE901305223523997
:10543C000093794B01EBD1715210204641F34F018F
:10544C0000F04CFDA06A84F83170002878D0002D53
:10545C0074D1B4F90A30202B0CBF3C253D2584F8BF
:10546C003050B8F1000F01D001F0DCFEFEB194F920
:10547C00370000281BDB012180B202F06BFB94F992
:10548C003700012180B202F076FB012002F028F8EF
:10549C0094F93700002180B202F06DFB0A2002F073
:1054AC001FF894F93700012180B202F064FBA06A66
:1054BC00002874D0A16C01F0B1FE0422574920469B
:1054CC00FFF70BFF61890139C9B22046FFF796FE41
:1054DC00534904222046FFF700FF94F93130012B89
:1054EC000CBF102114212046FFF788FE04224D49E1
:1054FC002046FFF7F2FEA3684B4A93425CD14B491E
:10550C0004222046FFF7E9FED9212046FFF776FE5C
:10551C0094F93130012B0CBF2221F1212046FFF7E9
:10552C006DFE204642490622FFF7D7FEA06A0028EE
:10553C0063D0E16C01F072FE01206BE76DB28EE777
:10554C0094F93500012180B202F004FB94F9360085
:10555C00012180B202F0FEFA94F93600012180B2EA
:10556C0002F009FB656A3DB1B8F1000F3FF47EAF64
:10557C00284602F055F979E794F93300012180B2FD
:10558C0002F0E8FA94F93400012180B202F0E2FA58
:10559C0094F93400294680B202F0EDFA66E7606AAD
:1055AC0018B104F1380102F069F994F936000021C0
:1055BC0080B202F0E0FA80E71E4A93420ED11E49F7
:1055CC0003222046FFF789FE94F93130012B0CBFE2
:1055DC009F21CF212046FFF711FE95E7174A9342F2
:1055EC0092D1174903222046FFF777FE94F9313008
:1055FC00012B0CBF1021AF21ECE794F936000121EF
:10560C0080B202F0B8FA606A002895D002F01CF95A
:10561C0092E700BF60850B00A0820B00A8870B00EF
:10562C00AC870B00B0870B0080002000BA870B0002
:10563C00B4870B0080004000BE870B006000100098
:10564C00C1870B0070B5002ABDF810503DDBB0F9D6
:10565C000A40944239DD0029BEBF5B181BB2002101
:10566C00B0F90840CE18A642C4BF631A1BB2002B77
:10567C002BDDC06AD61014FB0611014402F00700A2
:10568C0001228240012DD2B216D0022D0BD0E5B9E9
:10569C00D243D2B20B44994217D011F8010B1040EF
:1056AC0001F8010CF7E70B4499420ED011F8010BED
:1056BC00504001F8010CF7E70B44994205D011F862
:1056CC00010B104301F8010CF7E770BDF0B5002990
:1056DC00BDF8145076DBB0F90860B14272DA002ADA
:1056EC00BEBF9B181BB20022B0F90A40D718A742C4
:1056FC00C4BFA31A1BB2002B64DDC2F3C404C76A77
:10570C0016FB041612F00702DBB207EB060423D0DB
:10571C00C2F10802D2B22D4993423CBF4FF0FF0CAC
:10572C00A2EB030E895C3CBF4CFA0EFC0CEA0101A7
:10573C00012D07D0022D2ED04DB917F806C02CEA3A
:10574C00010103E017F806C041EA0C01B955934278
:10575C0038D3B0F908100C449A1AD2B2072A0ED9D1
:10576C00022D1DD113462178C9432170083BB0F995
:10577C000810DBB2072B0C44F5D802F007020AB371
:10578C00134B012D9B5C1AD0022D1CD0D5B922785D
:10579C0022EA030315E017F806C081EA0C01D5E7ED
:1057AC00291E18BF01214942C9B213462170083B7A
:1057BC00B0F90860DBB2072B3444F7D8DDE7227868
:1057CC0013432370F0BD22785340FAE798870B00FF
:1057DC00A0870B0070B41446827EBDF80C60022AC0
:1057EC000DD0032A18D0012A11D10289E4431444A4
:1057FC0024B203960A46214670BCFFF767BF428964
:10580C000589E44319441444691A24B209B2039675
:10581C00224670BCFFF716BF45891944691A09B2B4
:10582C00E7E730B41446827EBDF80850022A0DD04A
:10583C00032A18D0012A11D1E2180489A41A24B21F
:10584C0002950A46214630BCFFF7FCBE0289C943CB
:10585C001144E2184489A41A09B224B202952246D2
:10586C0030BCFFF733BF4289C943114409B2E7E7A3
:10587C002DE9F8430446806A002842D0A16C01F05F
:10588C00CDFC474905222046FFF727FD2189013928
:10589C002046C9B2FFF7B2FCB4F90A30DE1D48BF8E
:1058AC0003F10E06D4E90A052389F61013FB06F65C
:1058BC0015FA86F600283AD094F9301001F0E8FC7D
:1058CC00A06A036840219B6898470127B542A06AEB
:1058DC0024D01F2F0CD901F0E2FC94F93010A06AEF
:1058EC0001F0D6FCA06A036840219B689847012709
:1058FC00A06A15F8011B036801379B689847FFB233
:10590C00E4E7606A18B104F1380101F0B7FF94F9CB
:10591C003600002180B202F02EF9B2E701F0BFFC94
:10592C00A06A78B3E16CBDE8F84301F077BC94F958
:10593C003500012180B202F01EF9AE42F0D0606A4F
:10594C0015F8019B18B1494602F006F8F5E708274F
:10595C004FF0800894F9330009EA080180B202F094
:10596C000AF994F93400012180B202F004F994F997
:10597C003400002180B202F0FEF8013F4FEA5808D3
:10598C00E8D1DAE794F93600012180B202F0F3F89D
:10599C00606A18B1BDE8F84301F056BFBDE8F88362
:1059AC00C4870B0000210A22C0E9001270470023B3
:1059BC0010B50446C171837188B202F0F5F808B1D4
:1059CC000323A37100F076FE206010BD38B50C46A1
:1059DC0005461146A0B202F0BDF821462846BDE8A6
:1059EC003840FFF7E4BF38B50446C07902F0DCF864
:1059FC00A579003825F0080318BF0120C5F3400530
:105A0C008542A3710AD000F055FEA379206083F083
:105A1C000203A371A079C0F3C00038BD00F04AFEA8
:105A2C002368C01AA3889842F4D3A37903F0010326
:105A3C00AB42EFD000F03EFEA379206083F001036F
:105A4C0043F00803E5E7807900F00900A0F10803B2
:105A5C00584258417047000010B5064B036004468D
:105A6C00006D08B100F006FE2046FFF7E9FA20466B
:105A7C0010BD00BFD4870B0010B50446FFF7ECFF38
:105A8C0020467021FEF703FB204610BD30B585B0D3
:105A9C0004460D4601F0BCFF104A1149CDE9012125
:105AAC004FF0FF3280210346009220462022FFF760
:105ABC0077FB0C4B23600023C4E9143504F1580028
:105ACC00FFF770FF04F16000FFF76CFF04F1680052
:105ADC00FFF768FF204605B030BD00BF801A0600F6
:105AEC00A0860100D4870B0013B50446503000F09B
:105AFC00B9FD636DD90705D50222042104F15800C4
:105B0C00FFF764FF636D9A0705D50022032104F1AA
:105B1C006000FFF75BFF636D5B0705D50222114642
:105B2C0004F16800FFF752FF012300933C2202218D
:105B3C002046FFF73DFC02B010BD10B5436DD907F0
:105B4C00044602D55830FFF74EFF636D9A0703D514
:105B5C0004F16000FFF747FF636D5B0705D504F1A7
:105B6C006800BDE81040FFF73EBF10BD436D024614
:105B7C0013F0010003D002F15800FFF764BF704727
:105B8C00436D024613F0020003D002F16000FFF7F0
:105B9C005ABF7047436D024613F0040003D002F164
:105BAC006800FFF750BF70472DE9F04F85B01F46D6
:105BBC00BDF93880BDF83C30A8EB0209A7EB010A0F
:105BCC00B9F1000FB8BFC9F10009BAF1000FB8BFA5
:105BDC00CAF1000AD14583460C46154604DD3A4607
:105BEC002C4647460D469046BC4205DD2A464546A6
:105BFC00904622463C4617463E1BB2B20092A8EB9A
:105C0C00050282EAE271A1EBE271C6F3C03202FA3C
:105C1C0086F64545B4BF01224FF0FF320191761054
:105C2C000292BC421CDCDBF800200393D145D2F875
:105C3C001880C7BF294622462A4621465846C047E7
:105C4C00019A039BB61AB1B236B2002E05DA029A4B
:105C5C001544009A56182DB236B2013424B2E0E73E
:105C6C0005B0BDE8F08F704710B404682469A446F1
:105C7C005DF8044B604730B40468BDF808500295D9
:105C8C00A46BA44630BC604730B40468BDF808501F
:105C9C000295E46BA44630BC604770B4BDF90C505F
:105CAC00BDF810600468CDE90356246CA44670BCA2
:105CBC0060472DE9F3411C460368BDF820805B6901
:105CCC0005461646013C34440F4624B298472B68CF
:105CDC00CDF8048000949C6A28463B4632463946EF
:105CEC00A0472B68DB6A284602B0BDE8F041184794
:105CFC002DE9F3411D460368BDF820805B6904461D
:105D0C0017460E469847CDE9007822686B1E33443F
:105D1C00956A20461BB23A463146A8472368DB6A8F
:105D2C00204602B0BDE8F04118472DE9F3471E4666
:105D3C000368BDF928905B69BDF82C800C460546BC
:105D4C00174698472644B4422B680BDACDF80080EE
:105D5C00D3F820A021464B463A4628460134D0477A
:105D6C0024B2F0E7DB6A284602B0BDE8F0471847DA
:105D7C0013B502680191B0F90E100091146CB0F9D2
:105D8C000C3000221146A04702B010BD2DE9F7439C
:105D9C0099421646BDF92870BDF82C9002688046D1
:105DAC000D461C4613D1BE42C8BF3346CDF82890D1
:105DBC00C4BF3E461F467B1C946B9B1B1BB23246DA
:105DCC0029464046A44603B0BDE8F0436047BE42B6
:105DDC000AD19942C2BF0B4625461C46631CCDF81E
:105DEC002890D46B5B1BE9E753699847CDE90079A0
:105DFC00D8F8003040469F6A324623462946B847B9
:105E0C00D8F80030DB6A404603B0BDE8F0431847D1
:105E1C002DE9F3471D460368BDF82C805B69BDF97D
:105E2C00289004460F46164698472368CDF8008004
:105E3C00D3F824A032462B4639462046D047236857
:105E4C00CDF8008009F1FF323244D3F824A0394652
:105E5C002B46204612B2D0472368CDF80080D3F8E9
:105E6C0020A032464B4639462046D0476B1ED919E6
:105E7C002368CDF800801D6A20464B46324609B295
:105E8C00A8472368DB6A204602B0BDE8F0471847F4
:105E9C00704701F00303B0F90A208376C907B0F903
:105EAC00083059BF8381C2818281C3817047000051
:105EBC0030B54281C281074A074D0181002481819E
:105ECC004FF0FF31C0E905124460056004610477AE
:105EDC00046230BD010100012C8D0B002DE9F04F47
:105EEC0089B0CDE902120268BDF948800493BDF96E
:105EFC004C3052690593BDF850A00446904718F1F8
:105F0C0007024FF0000648BF08F10E024FEAE20B01
:105F1C0001963546039B019ABDF904109A18059B0E
:105F2C008B4212B227DD049B33444FF000090693D9
:105F3C000FFA89F080451FFA89F117DD4F0705BF6D
:105F4C00069BC0106D001D5C18BFEDB22B060AD568
:105F5C00029B206807921944836909B21F462046A8
:105F6C005346B847079A09F10109E1E7019B013350
:105F7C0001935E44CEE72368DB6A204609B0BDE896
:105F8C00F04F18472DE9F04F2DED028B91B01646CE
:105F9C00026ABDF874809DF878509DF87C4003919E
:105FAC001F46BDF8703004938346002A40F0C5802C
:105FBC00B0F90C308B4240F34C81B0F90E30B34247
:105FCC0040F34781062313FB0513002B40F341815B
:105FDC0006EBC403002B40F33C81037F1BB9AF2FAE
:105FEC0084BF0137FFB2DBF8003058465B69984735
:105FFC000522099200220592984A07EB8703D318D1
:10600C000C93B3B20693059A0C9B9B5C0793ABB2B3
:10601C000B93BDF80C300893039B02FB05F919FA9E
:10602C0083F90FFA89F308EE103A08230A93039BBD
:10603C0002EB030A4FF000090FFA8AFA079ADBF811
:10604C000030D20752D5012D1FFA89F23ED1012C16
:10605C003CD19B6906991F46049B0A4412B25146D7
:10606C005846B84709F101034FFA83F9079B5B08BF
:10607C0007930A9B013B13F0FF030A93DED1059FA4
:10608C0001377BB20593099B013B13F0FF03099386
:10609C00B9D1049B43450FD0012DDBF800303BD127
:1060AC00012C39D10899CDF8008005311C6A324693
:1060BC00082309B25846A047DBF80030DB6A584683
:1060CC0011B0BDEC028BBDE8F04F1847069914FBDC
:1060DC0002F20A44049901910094DB6918EE101A3B
:1060EC001F4612B22B465846B847BBE7049A4245A6
:1060FC00B8D0012D1FFA89F207D1012C05D19B696B
:10610C0006991F460A444346A8E70699CDF8048031
:10611C0014FB02F20A44DFE70B9ACDF8048002EB81
:10612C008201089AE4000A4411460094DC69324664
:10613C002B4609B25846A047BEE7137A516812683D
:10614C000B92FF1AFFB201EBC70331F8372006920E
:10615C009A780992DA780C92012D93F9052093F92B
:10616C0006A00A9201D8012C57D9BDF92830089302
:10617C000FFA8AF30793DBF8003058465B699847AF
:10618C00B3B24FF000080E931AFA86F3C146474695
:10619C000F930C9B9F428FD2079B0E9A3B4403FBA1
:1061AC000423002205920F9A1BB202EB070A08EE99
:1061BC00103A0FFA8AFA4346099A0599914241D24C
:1061CC005A1CD2B25B070D9207D1069B06990B9A0B
:1061DC0001339BB212F80190069319F0800F12D084
:1061EC00012DDBF80030BDF80C101AD1012C18D1A0
:1061FC000A9A9B691144059A11441E465246049B07
:10620C0009B25846B047059E0136F3B24FEA490928
:10621C0005935FFA89F90D9BCEE70023CDE907338F
:10622C00A9E70598089A024402FB0511049ACDE9E6
:10623C000042DB6918EE102A1E4609B22B4658465E
:10624C00B047E0E7099B013798445FFA88F8FFB242
:10625C009FE711B0BDEC028BBDE8F08F24880B00DA
:10626C00F0B5026A85B004460B46002A34D10A29DF
:10627C0008D1438A0282427E03EBC203638201206F
:10628C0005B0F0BD0D29FAD0E17E007E657E71B1BE
:10629C00B4F91060062111FB0061B4F90C60B14235
:1062AC00C1BFB4F91210228201EBC5026282E28AEC
:1062BC000192A28A0092CDE90205B4F91220B4F938
:1062CC0010102046FFF75EFE237E228A03EB430369
:1062DC0002EB43032382D2E70A2907D1002303826E
:1062EC00417E927A438A01FB0233C7E70D29C6D05F
:1062FC00157AA942C3D3517A9942C0D351685D1B18
:10630C00EDB201EBC505A87828B3E97819B3E17EA5
:10631C00267E677E91B195F905100844B4F91010EA
:10632C0006FB0011B4F90C00814207DD002020822D
:10633C00B4F91210927A02FB07126282E28A01927D
:10634C00A28A0092CDE90267B4F91220B4F91010B8
:10635C002046FFF717FE2979227E238A01FB0233A0
:10636C00B8E7012938BF01210176417670477047A3
:10637C007047704703065ABF024B53F820000020A9
:10638C00704700BF7C8D0B0003065ABF024B53F8BD
:10639C0020000020704700BF7C8F0B0001F0A0B8DC
:1063AC0000F088B908B5024B1B681B68019308BD47
:1063BC004C02030008B5024B1B685B68019308BDD7
:1063CC004C02030008B5024B1B681B69019308BD06
:1063DC004C02030008B5024B1B685B69019308BDB6
:1063EC004C02030008B5024B1B689B69019308BD66
:1063FC004C02030008B5024B1B68DB69019308BD16
:10640C004C02030008B5024B1B681B6A019308BDC4
:10641C004C02030008B5024B1B681B68019308BDB6
:10642C002802030008B5024B1B68DB68019308BD0A
:10643C002802030008B5024B1B689B69019308BD39
:10644C002802030008B5024B1B68DB69019308BDE9
:10645C002802030008B5024B1B681B6A019308BD98
:10646C002802030008B5024B1B685B6A019308BD48
:10647C002802030008B5024B1B689B6A019308BDF8
:10648C002802030008B5024B1B68DB6A019308BDA8
:10649C002802030008B5024B1B681B6B019308BD57
:1064AC002802030008B5024B1B685B6B019308BD07
:1064BC002802030008B5024B1B681B6C019308BD36
:1064CC002802030008B5024B1B681B6D019308BD25
:1064DC002802030008B5024B1B681B68019308BD1A
:1064EC003002030008B5024B1B685B69019308BDC1
:1064FC003002030008B5024B1B68DB69019308BD31
:10650C003002030008B5024B1B681B6A019308BDDF
:10651C003002030008B5024B1B685B6A019308BD8F
:10652C003002030008B5024B1B68DB6B019308BDFE
:10653C003002030008B5024B1B681B6C019308BDAD
:10654C003002030008B5024B1B685B6C019308BD5D
:10655C003002030008B5024B1B689B69019308BD10
:10656C003802030008B5024B1B68DB69019308BDB8
:10657C003802030008B5024B1B681B6A019308BD67
:10658C003802030008B5024B1B689B6A019308BDD7
:10659C003802030008B5024B1B681B6B019308BD46
:1065AC003802030008B5024B1B689B6B019308BDB6
:1065BC003802030008B5024B1B68DB68019308BD69
:1065CC003C02030008B5024B1B681B69019308BD14
:1065DC003C02030008B5024B1B685B69019308BDC4
:1065EC003C02030008B5024B1B689B69019308BD74
:1065FC003C02030008B5024B1B68DB69019308BD24
:10660C003C02030008B5024B1B681B6A019308BDD2
:10661C003C02030008B5024B1B689B6A019308BD42
:10662C003C02030008B5024B1B681B6C019308BDB0
:10663C003C02030008B5024B1B685B69019308BD63
:10664C006402030008B5024B1B681B6A019308BD6A
:10665C006402030008B5024B1B689B6A019308BDDA
:10666C006402030008B5024B1B681B6B019308BD49
:10667C004802030008B5024B1B685B6B019308BD15
:10668C004802030008B5024B1B685B6C019308BD04
:10669C004802030008B5024B1B685B68019308BDF8
:1066AC001802030008B5024B1B68DB68019308BD98
:1066BC001802030008B5024B1B685B69019308BD07
:1066CC001802030008B5024B1B685B69019308BDF7
:1066DC006C02030008B5024B1B685B68019308BD94
:1066EC002C02030008B5024B1B689B68019308BD84
:1066FC002C02030008B5024B1B68DB68019308BD34
:10670C002C02030008B5024B1B681B69019308BDE2
:10671C002C02030008B5024B1B685B69019308BD92
:10672C002C02030008B5024B1B689B6A019308BD41
:10673C002C02030008B5024B1B681B6B019308BDB0
:10674C002C02030008B5024B1B689B6F019308BD1C
:10675C002C02030008B5024B1B689B68019308BD13
:10676C006802030008B5024B1B68DB68019308BD87
:10677C006802030008B5024B1B685B6B019308BDF4
:10678C006002030008B5024B1B681B6D019308BD2A
:10679C006002030008B5024B1B689B68019308BD9F
:1067AC004402030008B5024B1B68DB6B019308BD68
:1067BC004402030008B5024B1B685B68019308BDDB
:1067CC004002030008B5024B1B689B68019308BD8F
:1067DC004002030008B5024B1B68DB68019308BD3F
:1067EC004002030008B5024B1B681B69019308BDEE
:1067FC004002030008B5024B1B685B69019308BD9E
:10680C004002030008B5024B1B689B69019308BD4D
:10681C004002030008B5024B1B68DB69019308BDFD
:10682C004002030008B5024B1B681B6A019308BDAC
:10683C004002030008B5024B1B681B6B019308BD9B
:10684C004002030008B5024B1B685B6B019308BD4B
:10685C004002030008B5024B1B681B6C019308BD7A
:10686C004002030008B5024B1B685B6C019308BD2A
:10687C004002030008B5024B1B685B68019308BD1E
:10688C002002030008B5024B1B685B69019308BD2D
:10689C002002030008B5024B1B68DB6A019308BD9C
:1068AC002002030008B5034B1B68D3F88830019312
:1068BC0008BD00002002030008B5034B1B68D3F889
:1068CC009430019308BD00002002030008B5024B70
:1068DC001B681B68019308BD1C02030008B5024B22
:1068EC001B685B68019308BD1C02030008B5024BD2
:1068FC001B68DB69019308BD1C02030008B5024B41
:10690C001B685B6A019308BD1C02030008B5024BAF
:10691C001B68DB6B019308BD1C02030008B5024B1E
:10692C001B681B6C019308BD1C02030008B5024BCD
:10693C001B685B6C019308BD1C02030000234068BC
:10694C001A46FFF737BF406800220221FFF742BF0B
:10695C00002240681146FFF735BF002240681146FF
:10696C00FFF740BF002340681A461946FFF742BFA5
:10697C00002340681A461946FFF744BF40680021BF
:10698C00FFF768BF40680021FFF76CBF406800222A
:10699C0081F00101FFF73EBF40680022FFF74ABFBC
:1069AC00002240681146FFF74DBF00224068114697
:1069BC00FFF738BF2DE9F04395B014460D46074656
:1069CC0000F02EFD00211C220DA8009101F06CFAA4
:1069DC0040230C9320466B460CAA0021FFF7C2FE05
:1069EC00044600284BD1024601216868FFF7FAFEE5
:1069FC000221804622466868FFF7F4FE009E81461D
:106A0C002146002E3BD0002939D17368022B03D0CC
:106A1C000A2B11D0F669F4E7B8F1000FFAD07169BE
:106A2C0006A8043107AD00F04BFD0FCD3C1D0FC483
:106A3C002B6823704146EDE7B9F1000FEAD0746979
:106A4C00102201A801F030FA06238DF8143001ADA4
:106A5C0004F108031834186859682A4603C208332D
:106A6C00A3421546F7D101A906A807AD00F0E6FC34
:106A7C000FCD3C1D0FC42B6823704946CAE7009804
:106A8C00FFF768FE384615B0BDE8F083024B034AA9
:106A9C001A6000225A607047C4E6032084910B00F0
:106AAC00002240681146FFF79DBE00224068114647
:106ABC00FFF7B8BE002240681146FFF7C3BE40681E
:106ACC000022FFF7B7BE4068002281F00101FFF7FA
:106ADC00A1BE002340681A461946FFF793BE002357
:106AEC0040681A461946FFF785BE002240681146D9
:106AFC00FFF768BE406800220221FFF76BBE00233F
:106B0C0040681A46FFF756BE024B04225A60024AEE
:106B1C001A607047CCE60320C0910B0013B50368D4
:106B2C008DF80710DC6B01224FF0FF330DF10701DC
:106B3C00A04702B010BD10B40368DC6B4FF0FF33FC
:106B4C00A4465DF8044B604713B5134602688DF8F4
:106B5C000710D46B0DF107010122A04702B010BD44
:106B6C0010B54369B3F88620B3F884309A420446D2
:106B7C0008D06369B3F88420511CA3F88410134423
:106B8C00187910BD03681B6998470028F1D14FF0A4
:106B9C00FF30F6E7704743691868C043C00F704771
:106BAC0070470000064B994210B500F10C0405D05B
:106BBC00084601F04BF8002808BF0024204610BD01
:106BCC0028920B0010B5AC210446FDF760FA204664
:106BDC0010BDAC21FDF75BBA2DE9F0414FF0000878
:106BEC0086B01C46C0F8048005460E461746414642
:106BFC00102202A801F058F9631C09D04FF47A73E3
:106C0C00B4FBF3F203FB1244CDE902285C43049479
:106C1C00686910230093006802AB41F2050240F64C
:106C2C00FF71FFF797FC002807DAFFF76FFE036888
:106C3C006B60002006B0BDE8F08168690023006835
:106C4C003A463146FFF7A6FC031EEEDB1846F1E789
:106C5C0038B584690A4B036005467CB16368013B17
:106C6C0063605BB9236820469B689847A368013B27
:106C7C00A3601BB923682046DB689847284638BDBB
:106C8C0038920B0010B50446FFF7E2FF20461C219A
:106C9C00FDF7FDF9204610BD30B587B0044601ADB7
:106CAC00684600F00DFC0FCD04340FC42B68237024
:106CBC0007B030BD70B54D69054B04468C3544F8B2
:106CCC00043B06460FCD0FC42B682370304670BDB5
:106CDC000C930B002DE9F0439846036893B00D46D6
:106CEC000024DB6A06461746984728466B46224620
:106CFC0021460094FFF736FD0546002863D1009B22
:106D0C00002B4BD05B69002B48D006A800F088FB09
:106D1C00009B5C696378022B04D1211D06A8FFF748
:106D2C00BBFF26E00A2B24D11122294601A801F031
:106D3C00BBF8A368002B38D004F108030DF1040C48
:106D4C00183418685968624603C20833A342944643
:106D5C00F7D1062301A90CA88DF8143000F06EFBB6
:106D6C000DF1340CBCE80F0007AC0FC4DCF800309C
:106D7C00237006A800F074FB80B1336807ADD3F81C
:106D8C002090124B0C930FCD0DAC0FC42B682370BD
:106D9C003A4643460CA93046C84705460098FFF7CB
:106DAC00D9FC284613B0BDE8F083E368002BC3D1AF
:106DBC004FF6FF70D4F81090FFF744FC8145BBD11F
:106DCC0004F11401AAE72546E8E700BF0C930B0079
:106DDC0038B543691A68002A054610DAB3F88620DC
:106DEC00B3F884309A420AD103681B699847044669
:106DFC0028B92B682846DB6A9847204638BD012005
:106E0C00FCE710B54369B3F88620B3F884309A4296
:106E1C00044605D06369B3F884201344187910BD77
:106E2C0003681B6998470028F4D14FF0FF30F6E750
:106E3C00F8B543691746B3F88620B3F884309A4204
:106E4C0005460E4616D06969B1F88430B1F8864013
:106E5C00E41ABC4228BF3C4604332246194430464F
:106E6C0001F014F86A69B2F884302344A2F8843033
:106E7C002046F8BD03681B6998470028E3D14FF002
:106E8C00FF34F5E742690023A2F884304269A2F886
:106E9C00863070472DE9F0411F4603680C46DB6ACB
:106EAC008AB0054616469847237DD5F81480042BE6
:106EBC000CBF02200A2006220121FFF773FBC8F841
:106ECC0000006B691B68002B08DA2B682846DB6A0C
:106EDC000024984720460AB0BDE8F0812846FFF709
:106EEC00D1FFB7B1002303A9F8B20393ADF810306A
:106EFC00FFF7E8FB0028E8D16869062300930068D7
:106F0C0003AB41F20B0240F6FF71FFF723FB0028A5
:106F1C00DBD11C22002103A800F0C6FF237D042B2B
:106F2C001DD14FF407733046ADF80C30FFF792FBD0
:106F3C00ADF80E006068FFF785FB04906B691C22AE
:106F4C00186803A9FFF716FB0028BED104340FCC38
:106F5C006D698C350FC523682B700124BAE740F698
:106F6C001C233046ADF80C30FFF774FB05AEADF8C2
:106F7C000E00231D04F1140718685968324603C229
:106F8C000833BB421646F7D1D8E7000030B542694A
:106F9C00B2F886308BB004462BB1B2F884209A42FA
:106FAC0001D1FFF76FFF61690868002818DBB1F8A1
:106FBC0086507F2D14D804310823C5F18002294452
:106FCC00FFF7E0FA002813DD6369B3F886200AB9ED
:106FDC00A3F884206369B3F886201044A3F88600D4
:106FEC006369B3F88600B3F88430C01A0BB030BDB7
:106FFC00FFF78CFC03680B2BF2D0FFF787FC0368C0
:10700C000B2BEDD020230025CDE90235FFF77EFCBC
:10701C0003680193084B0949009302AA2B463220BE
:10702C00FFF7B0FB63691868FFF79CFA63694FF0D0
:10703C00FF321A60D4E700BFFB910B00F4910B00F8
:10704C0010B5436904461868002801DBFFF78AFA7B
:10705C0063694FF0FF321A606069112200218C3095
:10706C0000F022FF2046BDE81040FFF70BBF10B523
:10707C00002304460160C0F88430883000F0D0F959
:10708C00204610BD73B500234FF47A72C0E901326B
:10709C000E4A0361026043610446AC200191FCF787
:1070AC00F2FF051E05F10C0608D00123C5E90133DA
:1070BC00074B01992B603046FFF7D9FF2046C4E9F6
:1070CC000565FFF7DFFE02B070BD00BF38920B0004
:1070DC0014920B0010B54FF0FF310446FFF7D2FFAE
:1070EC00204610BD10B504460068002801DBFFF7F0
:1070FC0039FA204610BD0C30FFF7F4BF70474174CD
:10710C00704708B5007CFFF785FA20EAE07008BDEF
:10711C0008B5007CFFF756FA20EAE07008BD08B508
:10712C00007CFFF75FFA40EAE07008BD08B5007C10
:10713C00FFF750FA40EAE07008BD007CFFF75ABA3E
:10714C0037B5457C04462DB1207C03B0BDE83040FA
:10715C00FFF730BA007C0191FFF75CFA0028019927
:10716C00F2DC284603B030BD10B514210446FCF700
:10717C008EFF204610BD000010B54FF47A73044604
:10718C00084611460022C4E90123044B2360012365
:10719C0020746374FFF746FA204610BD84920B00EE
:1071AC007047F8B5064615460C468F18BC4206D0FB
:1071BC00336814F8011B9B6830469847F6E728465D
:1071CC00F8BD007C0022FFF745B9007C0021FFF7D9
:1071DC0049B9007C0021FFF74DB9007C0021FFF775
:1071EC0051B9007C0021FFF755B910B514210446A4
:1071FC00FCF74DFF204610BD10B54FF47A730446D2
:10720C0008460021C4E90113034B23602074114686
:10721C00FFF750F9204610BDB4920B00007C002201
:10722C00FFF7F8B80023007C1A461946FFF7FAB8A6
:10723C007FB500221423CDE90122ADF804300B7880
:10724C008DF808304B680393CB680493007C0B7A61
:10725C00059301A9FFF736F907B05DF804FB1FB5DC
:10726C00003B8DF800104FF06401039118BF01230F
:10727C00694601928DF80830FFF7DAFF05B05DF82A
:10728C0004FB0123FFF7EBBF007C0022FFF7D2B811
:10729C00C9B2FFF7F9BF007C0022FFF7D3B8012178
:1072AC00FFF7F9BF417470477047704708B500216C
:1072BC00007CFFF797F840EAE07008BD08B50121A3
:1072CC00007CFFF78FF840EAE07008BD08B5007C41
:1072DC00FFF780F820EAE07008BD08B5007CFFF7E6
:1072EC0071F820EAE07008BD13B50446007C0191EA
:1072FC00FFF770F80028019901DC607C20B1207C3C
:10730C00FFF778F820EAE07002B010BD007CFFF7C0
:10731C0079B810B514210446FCF7B9FE204610BD0F
:10732C0010B54FF47A73044608460021C4E90113E2
:10733C00044B23600123207463741146FFF732F869
:10734C00204610BDDC920B00007C0022FFF732B807
:10735C0010B514220446002100F0A6FD204610BDF5
:10736C0010B50F4C88B003A8FFF7F2FF2178BFF3DC
:10737C005B8F11F001010FD120460191FCF796FEB5
:10738C00019948B103AA0748FFF7CAFF2046FCF74A
:10739C0092FE054800F06CFD024808B010BD00BF1D
:1073AC00D4E60320D8E60320B5720B00704710B565
:1073BC0018210446FCF76BFE204610BDF0B5037D8A
:1073CC00062B8DB00E4600F104074FF0000412D0CE
:1073DC0000F1080515F8011D0A22304600F0A7F946
:1073EC00AF42044419D0002CF4D02E21304600F0CA
:1073FC0085F90444EEE72F236A4639460A208DF8B6
:10740C000040FFF717F9684600F08EFD336802461E
:10741C00DB68694630469847044620460DB0F0BDFF
:10742C0010B5054B0446112240F8043B002100F036
:10743C003BFD204610BD00BF0C930B000346074AD2
:10744C0010B543F8042B01F1100251F8044B43F82A
:10745C00044B9142F9D10A781A7010BD0C930B00B1
:10746C00037D042B04D14068003818BF01207047FD
:10747C00062B07D143683BB983682BB9C3681BB98A
:10748C000069F1E7002070470120704710B59DF8A6
:10749C00084044EA032343EA024242EA016104231E
:1074AC004160037510BD000013B5044C04609DF8D9
:1074BC0010400094FFF7EAFF02B010BD0C930B00D4
:1074CC0007B5064B0360CB7800938B784A78097824
:1074DC00FFF7DCFF03B05DF804FB00BF0C930B005F
:1074EC000021FFF7CFB90000014B1860704700BFB7
:1074FC0078E5032008B50B4B43B1FFF731FF036868
:10750C001B699847002801DDAFF30080064B43B19F
:10751C0000F0BEFA03681B699847002801DDAFF341
:10752C00008008BD000000000000000008B5FFF757
:10753C00E1FFFFF7BFF8014B186008BD40E70320DF
:10754C000548064A064908B5121A00F09FFC054B7F
:10755C00054A1A6008BD00BF00F4032004F40320A0
:10756C0054960B0000F403201E1C279A07B5002329
:10757C0000931A466FF07701FFF79EF903B05DF8A0
:10758C0004FB000007B543880A2B08D0502B0BD105
:10759C00094B1B684BB103B05DF804EB1847FFF7C0
:1075AC00E5FF03B05DF804FB002300931A466FF06F
:1075BC007701FFF781F9F4E7F0E6032010B51248E4
:1075CC000021FFF7B3F9114B1A68114B9A42114B7A
:1075DC000CBF012200221A7001D0FFF7B1FFFFF798
:1075EC0059F8044600F068FC0B4B13B12046AFF37E
:1075FC00008000210848FFF7D5F8BDE81040074887
:10760C000021FFF74FB900BFF5740B0000F4032005
:10761C001E1C279AECE603200000000091750B005D
:10762C00014B00229A607047F4E60320024B1A6863
:10763C00024B1A60704700BF74E5032004E7032077
:10764C0010B50446FFF736F8E060236820465B6906
:10765C009847002808DAFFF72DF8E368C01AA368EA
:10766C009842F2D34FF0FF3010BD2DE9F0410746A0
:10767C000C468E180D46B542A5EB040807D03846CB
:10768C00FFF7DEFF031E02DB05F8013BF3E7404684
:10769C00BDE8F081014B024A1A60704708E70320ED
:1076AC0034930B00F8B506460D468F180024BD42E6
:1076BC000CD0336815F8011B9B6830469847031EA5
:1076CC0001DB1C44F3E7002C08BF1C462046F8BD28
:1076DC0013B50446084659B1019100F025FC236806
:1076EC000199DB680246204602B0BDE810401847FD
:1076FC0002B010BD08B5FFF7EBFF08BD03689B682F
:10770C00184738B50D210546FFF7F8FF0A21044646
:10771C002846FFF7F3FF204438BD38B50546FFF780
:10772C00D7FF04462846FFF7ECFF204438BD30B5A0
:10773C008BB00023012A8DF8243098BF0A2209ACA3
:10774C000D46B1FBF2F101FB125303F0FF03092BC1
:10775C0094BF30333733DBB2AA4204F8013DEFD982
:10776C002146FFF7B5FF0BB030BD2DE9F04186B0D7
:10777C0000AF05460E46381D142114463B60FFF73A
:10778C00BDF813280ED8391D2846FFF7A1FF044673
:10779C001EB12846FFF7B5FF044420461837BD46F6
:1077AC00BDE8F08100F1080323F00703E846ADEBD8
:1077BC00030D2246411C3B686846FFF79FF869465B
:1077CC002846FFF785FF0446C546E1E7024800233B
:1077DC000360FEF757BF00BF0CE70320054B0222E6
:1077EC001A60054B054A9A600020C3E90000FFF7B8
:1077FC0041B800BF1CE7032010E703200000FFFF87
:10780C000021FEF79FBE0021FEF794BE10B5044682
:10781C0008462170FEF76EFE00236360204610BD03
:10782C0013B504460078FFF7EEFF58B920780190A5
:10783C004FF6FF71FEF74EFE019802B0BDE8104006
:10784C00FFF7DEBF02B010BD0078FFF7D9BF000014
:10785C00400830B51860002418688842E5B206D993
:10786C000134082C02D040081860F5E70725024BBC
:10787C005B5D137030BD00BF38930B002DE9F043F6
:10788C0006468FB000780C46FFF7BDFF00281BDBC7
:10789C0035781422002109A800F006FB0B230022E6
:1078AC0009A92846ADF82430FEF734FE9DF82D309A
:1078BC0013B19DF82C5055B10027B946B846012597
:1078CC0023795DB1C3B100200FB0BDE8F083DDF8C2
:1078DC0030809DF834909DF83570F1E7002B35D150
:1078EC00A368434508D18DF820908DF82170BDF820
:1078FC002020A3899A42E6D00023A1688DF80F308E
:10790C000A9804AB0DF10F02FFF7A2FF217985B99C
:10791C0089B9A36843450ED38DF820908DF821705A
:10792C00BDF82020A3899A4205D1049B434502D17E
:10793C00C9E70029F9D100230193637B00939DF8DB
:10794C000F20237B3078FEF7EDFDBCE7CDE9005529
:10795C002B462A460121F5E708B50078FEF7C2FD53
:10796C00C0B208BD002240681146FEF75BBF002282
:10797C0040681146FEF766BF40680022FEF75ABF0A
:10798C004068002281F00101FEF744BF00234068EB
:10799C001A461946FEF736BF002340681A461946A8
:1079AC00FEF728BF002240681146FEF71BBF0022DD
:1079BC0040681146FEF706BF406800220221FEF720
:1079CC0009BF002340681A46FEF7F4BE024B03229F
:1079DC005A60024A1A60704720E7032048930B0054
:1079EC007047000038B520251423044603608560D9
:1079FC0005610649284600F027F9044960602846CD
:107A0C0000F022F9E060204638BD00BF7C930B00EB
:107A1C0030B50E4D2978BFF35B8F11F0010487B0A0
:107A2C0011D12846FCF742FB68B101A8FFF7DAFF39
:107A3C0001AA21460648FFF7DFFB2846FCF73BFB73
:107A4C00044800F015FA024807B030BD28E70320BF
:107A5C002CE70320ED790B007047000038B5044685
:107A6C0014252A46002100F01FFA258040250749DD
:107A7C0025812846258200F0E7F8044960602846F5
:107A8C0000F0E2F8E060204638BD00BF7C930B00AC
:107A9C0030B50E4D2978BFF35B8F11F0010487B020
:107AAC0011D12846FCF702FB68B101A8FFF7D6FFFD
:107ABC0001AA21460648FFF75FFB2846FCF7FBFAB4
:107ACC00044800F0D5F9024807B030BD44E7032064
:107ADC0048E70320657A0B00232813B502D9002050
:107AEC0002B010BDA0F10B03022B1AD8174C217851
:107AFC00BFF35B8F11F001010BD120460191FCF714
:107B0C00D5FA019928B11248FFF780FE2046FCF700
:107B1C00D2FA0F4B1878FEF7F5FC0028DFD10120C4
:107B2C00DEE7012809D8FFF773FF0021007CFEF780
:107B3C00B9FC80F00100C0B2D2E709380128EED8B8
:107B4C00FFF7A6FF007CFEF75DFDF2E7B8E6032029
:107B5C00BCE60320232838B504460D460AD8FF2975
:107B6C0008D0FFF7B9FF28B129462046BDE83840B8
:107B7C00FEF7B8BD38BD38B504460D46FEF7BAFD64
:107B8C00FF2810D0062804D84D2323FA00F0C30791
:107B9C0009D42046FFF7A0FF28B129462046BDE8AE
:107BAC003840FEF7AFBD38BD10B50446FEF7A2FD58
:107BBC00031FDBB2012B08D92046FFF78DFF20B144
:107BCC002046BDE81040FEF7A5BD002010BD0D28D5
:107BDC0010B504469CBF0E34A4B22046FFF77CFFC0
:107BEC0050B103212046FEF775FD032804D1204631
:107BFC00BDE81040FEF79EBD002010BD38B5044610
:107C0C000D46FFF769FFF0B104212046FEF762FD37
:107C1C00042805D1A9B22046BDE83840FEF782BD44
:107C2C0002212046FEF756FD02280CD12046FEF715
:107C3C0061FD012801D0042805D129462046BDE864
:107C4C003840FEF77FBD38BDFCF71FBA014900F084
:107C5C00F9B800BF98930B007FB500241023CDE931
:107C6C000234036815469E6912686B46CDE90044E0
:107C7C00B0479DF8043003F00603062B03BF009BAE
:107C8C002B600120204604B070BD0098904214BFB8
:107C9C00012006207047000010B5034B036004461A
:107CAC0000F0CDF8204610BDD8930B0010B504465B
:107CBC00FFF7F2FF20460821FCF7E9F9204610BD3A
:107CCC002DE9F0411F46DDE90834DDF818809845B0
:107CDC000646154607D1079900F0B4F818B165713E
:107CEC000020BDE8F0813946304600F0ABF80028A2
:107CFC00F6D00123C4F800802571A371F0E738B5E4
:107D0C0015461C4600F09EF820B10823E3600623BC
:107D1C002560237138BD73B505460C4601921E468D
:107D2C0000F090F850B9032E08D82368019A5B69CB
:107D3C002946204602B0BDE87040184702B070BD1D
:107D4C0010B5034B03600446FFF7A6FF204610BD99
:107D5C0038940B0010B50446FFF7F2FF20460C21B7
:107D6C00FCF795F9204610BDF7B5089F97420546DC
:107D7C000E4614460AD0A86802680897156A314660
:107D8C002246AC4603B0BDE8F0406047194601936B
:107D9C0000F058F8019B0028EDD0062003B0F0BD90
:107DAC002DE9F14F0D461946DDE90A4BDDE90CA62C
:107DBC0081461746984600F045F890B1002D346086
:107DCC00377109DB61198A450CBF06210121B1719C
:107DDC00002001B0BDE8F08F0235F9D10123B37159
:107DEC00F6E7544506D15946484600F02BF808B141
:107DFC007771EDE7D9F808000368CDE90CA6CDE959
:107E0C000A4BDC693A4643462946A44601B0BDE814
:107E1C00F04F60472DE9F04107460C4615461E46CB
:107E2C00FFF76DFF48B9B86803689F692A46334667
:107E3C002146BC46BDE8F0416047BDE8F081704783
:107E4C0000207047814208B50ED0406803782A2B79
:107E5C000CD049680B782A2B08BF013100F05AF876
:107E6C00B0FA80F0400908BD0120FCE70020FAE7D9
:107E7C00002301461A46184600F0FEB80A220021DB
:107E8C0000F0F0B80A22002100F0ECB80A4491424C
:107E9C0000F1FF3300D1704710B511F8014B03F816
:107EAC00014F9142F9D110BD02440346934200D1D7
:107EBC00704703F8011BF9E738B5104B1D68AB6B25
:107ECC000446B3B91820FEF701FD0246A86320B999
:107EDC000B4B0C484221FEF721FD0B490B4BC0E923
:107EEC0000130B4B83600B23838100210120C2E91B
:107EFC000401AB6B00221C615A6138BD78E503208C
:107F0C0071940B0088940B000E33CDAB34126DE6DC
:107F1C00ECDE050010F8012B11F8013B012A28BFFB
:107F2C009A42F7D0D01A7047034613F8012B002A57
:107F3C00FBD1181A0138704710B50139034632B11C
:107F4C0011F8014F03F8014B013A002CF7D11A44F8
:107F5C000021934200D110BD03F8011BF9E700008A
:107F6C00012B2DE9F04701D0242B06D9FEF7CEFCCE
:107F7C00162303600020BDE8F087DFF8E4C00D464F
:107F8C002E4615F8014B14F80C7017F00807F7D1B2
:107F9C002D2C32D12C780127B51C002B5BD0102B4B
:107FAC0009D1302C07D12C7804F0DF04582C4DD19A
:107FBC006C781023023507F1004808F1FF384FF0B8
:107FCC00000CB8FBF3F9664603FB198AA4F1300EDA
:107FDC00BEF1090F16D87446A34224DDBCF1000F84
:107FEC001EDBB1451CD301D1A24519DB06FB0346B0
:107FFC004FF0010C15F8014BE8E72B2C04BF2C7843
:10800C00B51CCAE7A4F1410EBEF1190F01D8373CDB
:10801C00E2E7A4F1610EBEF1190F04D8573CDBE77F
:10802C004FF0FF3CE6E7BCF1000F05DA22230360BA
:10803C00464642B930469EE707B17642002AF9D04F
:10804C00BCF1000F00D0691E1160F3E73024002B47
:10805C00B1D10823AFE7302CA5D00A23ABE700BF82
:10806C0006950B0013460A46014602480068FFF7C6
:10807C0077BF00BF78E503202DE9F843DFF8B8801F
:10808C000646D8F800001F460D46914600F056F8FB
:10809C00254B1C6834B9254C1C60254B13B11B684F
:1080AC00C4F8883063681F2B07DDD8F8000000F097
:1080BC0047F84FF0FF30BDE8F8834EB3D4F8880092
:1080CC0088B91C4B23B9D8F8000000F038F8F0E759
:1080DC004FF48470FEF7FAFB0028F4D00023C0E9BB
:1080EC004033C4F88800636840F8239001229A401A
:1080FC0000EB8301D0F800311343C0F80031022E9D
:10810C00C1F8807002BFD0F804311343C0F80431B9
:10811C006368D8F800005A1C0233626044F823509C
:10812C0000F00EF80020C6E7E8E703205CE7032028
:10813C0000000000D9680B00DCE503207047704795
:10814C00704700001D400B0059400B0081400B0094
:10815C0085400B000000000043616C6C206F6E20AA
:10816C0070757265207669727475616C0025690092
:10817C00256C6900696E006F75740070776D006412
:10818C007700617700767700257500516E4177781E
:10819C00625845745541584A5F70486B4F62546B36
:1081AC004D6167694C6B65357A4D5A00446576694B
:1081BC006365206E6F7420666F756E642E20506C34
:1081CC006561736520636865636B20776972696E9E
:1081DC00672E0050524F583A2000414D423A200031
:1081EC00626C6E6B696E660076657200312E312E94
:1081FC003000682D62656174003435006275666606
:10820C002D696E0031303234006465760050617235
:10821C007469636C65204172676F6E006275696C7E
:10822C0064004A756E2033302032303232203131C6
:10823C003A34393A343200000064656661756C7406
:10824C0020004D5342004C5342003C53504953655F
:10825C007474696E67732064656661756C743E0036
:10826C003C53504953657474696E677320257325AC
:10827C0075202573204D4F444525753E00000000A8
:10828C00000000000000000059510B003B500B0097
:10829C003D500B00000000000001800000000000B9
:1082AC000000000003800000000000000000000738
:1082BC00C000000000000000000007C0000000002B
:1082CC0000000000000FC0000000000000000000D3
:1082DC001FE00000000000000000001FE000000094
:1082EC000000000000003FE0000000000000000063
:1082FC00003FF00000000000000000007FF00000D4
:10830C0000000000001FF87FF000000000000000DB
:10831C003FFE7FF0000000000000003FFF7FF000F8
:10832C000000000000001FFFFBE000000000000048
:10833C00000FFFF9FFC00000000000000FFFF9FF65
:10834C00F800000000000007FFF1FFFF0000000034
:10835C00000003FC73FFFF80000000000001FE3FE3
:10836C00FFFF80000000000000FF1E0FFF00000058
:10837C00000000007FFE1FFC000000000000003F1A
:10838C00FFFFF8000000000000000FDFFFE000001E
:10839C0000000000001F19FFC000000000000000DA
:1083AC003F3CFF00000000000000007E7CF8000055
:1083BC000000000000007FFE7C00000000000000B8
:1083CC0000FFFFFC0000000000000000FFFFFE00AB
:1083DC0000000000000000FFFFFE00000000000095
:1083EC000001FFEFFE0000000000000001FFCFFEC7
:1083FC000000000000000003FF07FE00000000006A
:10840C00000003FC07FE0000000000000003F00366
:10841C00FE00000000000000018000FE00000000D3
:10842C000000000000007E000000000000000000C2
:10843C00003E000000000000000000000C000000E6
:10844C00000000078000FC000003C0000000078053
:10845C0001FC000003C0000000078001FC000003C9
:10846C00C0000000078001E00000001E00000007B3
:10847C008001E00000001E007FE3F79FF9FDE77824
:10848C007BDFC0FFF7FFBFFDFDFF787BDFC0FFF791
:10849C00FFBFFDFDFF787BDFC0F0F787BC3DE1FF40
:1084AC00787BDE00F0F787BC3DE1F0787BDE0000E6
:1084BC00F787803DE1E0787BDE007FF7879FFDE169
:1084CC00E0787BDE00FFF787BFFDE1E0787BDE0024
:1084DC00F0F787BC3DE1E0787BDE00F0F787BC3D30
:1084EC00E1E0787BDE00F0F787BC3DE1E0787BDEF5
:1084FC0000FFF7FFBFFDE1E07FFBDFC0FFF7FFBF31
:10850C00FDE1E07FFBDFC07CF3F39F3DE1E03E7BD0
:10851C00CFC00000000000000000000000FFFFFFC3
:10852C00FFFFFFFFFFFFFFC0FFFFFFFFFD68DB1139
:10853C001A31C0FFFFFFFFFD2B5AFB6AEFC0FFFF94
:10854C00FFFFFD4B5B3B1A33C0FFFFFFFFFD6B5B77
:10855C00DB6AFDC0000060000000000000000000AD
:10856C000000000000E0000000000000000000001F
:10857C0000000001E000000000000000000000000E
:10858C00000001F0000000000000000000000000EE
:10859C000003F000000000000000000000000000DC
:1085AC0007F00000000000000000000000000007C1
:1085BC00F8000000000000000000000000000FF8B0
:1085CC0000000003C0007E000001E0007F0FF800F7
:1085DC00000003C000FE000001E000FFEFF8000007
:1085EC000003C000FE000001E000FFFFF8000000E7
:1085FC0003C000F00000000F007FFE7FC0000003EE
:10860C00C000F00000000F003FFE7FF83FF1FBCFF1
:10861C00FCFEF3BC3DEFE01FFE7FFF7FFBFFDFFEA8
:10862C00FEFFBC3DEFE01FC6FFFF7FFBFFDFFEFE42
:10863C00FFBC3DEFE00FE3C7FE787BC3DE1EF0FF0F
:10864C00BC3DEF0007FF87FC787BC3DE1EF0F83CD7
:10865C003DEF0001FFFFF0007BC3C01EF0F03C3D7E
:10866C00EF0001F37FE03FFBC3CFFEF0F03C3DEFAA
:10867C000003E33F807FFBC3DFFEF0F03C3DEF00E7
:10868C0007E73C00787BC3DE1EF0F03C3DEF0007B3
:10869C00FFBE00787BC3DE1EF0F03C3DEF0007FF11
:1086AC00FE00787BC3DE1EF0F03C3DEF000FFFFEBA
:1086BC00007FFBFFDFFEF0F03FFDEFE00FFFFF0060
:1086CC007FFBFFDFFEF0F03FFDEFE00FF9FF003E18
:1086DC0079F9CF9EF0F01F3DE7E01FF1FF0000009D
:1086EC000000000000000000001F80FF007FFFFF63
:1086FC00FFFFFFFFFFFFFFE01C007F007FFFFFFF7E
:10870C00FEB46D888D18E000001F007FFFFFFFFE98
:10871C0095AD7DB577E000000F007FFFFFFFFEA554
:10872C00AD9D8D19E0000006007FFFFFFFFEB5AD8B
:10873C00EDB57EE000000000000000004D500B0085
:10874C0065500B006D620B00B1760B0079500B007D
:10875C00735C0B00755C0B00A75C0B00835C0B005F
:10876C00955C0B00B55B0B00735C0B009F5E0B0004
:10877C0087520B002F580B00E1570B00375D0B0095
:10878C007D5D0B00995D0B001D5E0B000080C0E051
:10879C00F0F8FCFE000103070F1F3F7FAED580A849
:1087AC00D300408D2000A1C8DB40A4A62EAFDA0276
:1087BC00818FDA1281DA02812200FF210000000091
:1087CC000000000000000000655A0B00855A0B00E9
:1087DC006D620B00B1760B0079500B00735C0B00D3
:1087EC00755C0B00A75C0B00835C0B00955C0B00AD
:1087FC00B55B0B00735C0B009F5E0B0087520B008C
:10880C002F580B00E1570B00375D0B007D5D0B0003
:10881C00995D0B001D5E0B0000000000003E5B4FDD
:10882C005B3E3E6B4F6B3E1C3E7C3E1C183C7E3CC4
:10883C00181C577D571C1C5E7F5E1C00183C1800D2
:10884C00FFE7C3E7FF0018241800FFE7DBE7FF3062
:10885C00483A060E2629792926407F050507407FD0
:10886C0005253F5A3CE73C5A7F3E1C1C08081C1C43
:10887C003E7F14227F22145F5F005F5F06097F0139
:10888C007F006689956A606060606094A2FFA29424
:10889C0008047E040810207E201008082A1C0808F2
:1088AC001C2A08081E101010100C1E0C1E0C303840
:1088BC003E3830060E3E0E06000000000000005F41
:1088CC0000000007000700147F147F14242A7F2A5D
:1088DC00122313086462364956205000080703001F
:1088EC00001C2241000041221C002A1C7F1C2A086B
:1088FC00083E0808008070300008080808080000CE
:10890C0060600020100804023E5149453E00427F41
:10891C00400072494949462141494D331814127F90
:10892C001027454545393C4A494931412111090730
:10893C003649494936464949291E000014000000B1
:10894C004034000000081422411414141414004183
:10895C0022140802015909063E415D594E7C121140
:10896C00127C7F494949363E414141227F41414178
:10897C003E7F494949417F090909013E41415173F3
:10898C007F0808087F00417F41002040413F017F64
:10899C00081422417F404040407F021C027F7F042C
:1089AC0008107F3E4141413E7F090909063E415175
:1089BC00215E7F09192946264949493203017F0165
:1089CC00033F4040403F1F2040201F3F4038403F66
:1089DC00631408146303047804036159494D43007C
:1089EC007F4141410204081020004141417F0402B3
:1089FC00010204404040404000030708002054544A
:108A0C0078407F2844443838444444283844442827
:108A1C007F385454541800087E090218A4A49C787A
:108A2C007F0804047800447D40002040403D007FD6
:108A3C001028440000417F40007C047804787C08B6
:108A4C000404783844444438FC182424181824248A
:108A5C0018FC7C08040408485454542404043F446F
:108A6C00243C4040207C1C2040201C3C4030403C9E
:108A7C0044281028444C9090907C4464544C4400FE
:108A8C000836410000007700000041360800020162
:108A9C000204023C2623263C1EA1A161123A40404E
:108AAC00207A3854545559215555794122545478CB
:108ABC0042215554784020545579400C1E52721264
:108ACC0039555555593954545459395554545800ED
:108ADC0000457C410002457D420001457C407D12F1
:108AEC0011127DF0282528F07C5455450020545453
:108AFC007C547C0A097F4932494949323A444444FE
:108B0C003A324A4848303A4141217A3A4240207838
:108B1C00009DA0A07D3D4242423D3D4040403D3C39
:108B2C0024FF2424487E4943662B2FFC2F2BFF095E
:108B3C0029F620C0887E0903205454794100004452
:108B4C007D413048484A32384040227A007A0A0A3D
:108B5C00727D0D19317D2629292F282629292926B0
:108B6C0030484D4020380808080808080808382FF5
:108B7C0010C8ACBA2F102834FA00007B000008147F
:108B8C002A142222142A14085500550055AA55AA55
:108B9C0055AAFF55FF55FF000000FF00101010FFF5
:108BAC0000141414FF001010FF00FF1010F010F050
:108BBC00141414FC001414F700FF0000FF00FF1441
:108BCC0014F404FC141417101F10101F101F14148D
:108BDC00141F00101010F0000000001F10101010D7
:108BEC001F10101010F010000000FF1010101010CB
:108BFC0010101010FF10000000FF140000FF00FF09
:108C0C0000001F10170000FC04F4141417101714A4
:108C1C0014F404F40000FF00F714141414141414C6
:108C2C00F700F7141414171410101F101F14141439
:108C3C00F4141010F010F000001F101F0000001FA3
:108C4C0014000000FC140000F010F01010FF10FFD6
:108C5C00141414FF141010101F00000000F010FF6B
:108C6C00FFFFFFFFF0F0F0F0F0FFFFFF000000004F
:108C7C0000FFFF0F0F0F0F0F3844443844FC4A4AD3
:108C8C004A347E02020606027E027E026355494188
:108C9C00633844443C04407E201E2006027E0202BF
:108CAC0099A5E7A5991C2A492A1C4C7201724C30D3
:108CBC004A4D4D303048784830BC625A463D3E49AA
:108CCC004949007E0101017E2A2A2A2A2A44445F4E
:108CDC00444440514A444040444A51400000FF0142
:108CEC0003E080FF000008086B6B08361236243650
:108CFC00060F090F060000181800000010100030B5
:108D0C0040FF0101001F01011E00191D1712003C3C
:108D1C003C3C3C0000000000000000000000000093
:108D2C0000000000000000006D620B00B1760B002B
:108D3C00A1400B00735C0B00755C0B00A75C0B0077
:108D4C00835C0B00955C0B00B55B0B00735C0B003C
:108D5C009F5E0B009D5E0B00BF5C0B00FD5C0B006F
:108D6C00375D0B007D5D0B00995D0B001D5E0B00EC
:108D7C007B630B007B630B007B630B007B630B0043
:108D8C007B630B007B630B007B630B007B630B0033
:108D9C007B630B007B630B007B630B007B630B0023
:108DAC007B630B007B630B007B630B007B630B0013
:10917C00000000000000000049690B0053690B005F
:10918C005D690B0067690B0071690B007D690B0051
:10919C0089690B0091690B0099690B00A5690B009B
:1091AC00AD690B00B7690B00C1690B000000000032
:1091BC00000000000B6B0B00016B0B00F76A0B003F
:1091CC00AD6A0B00EB6A0B00DF6A0B0089690B00C0
:1091DC0091690B00D36A0B00CB6A0B00C16A0B00C0
:1091EC00B76A0B00C1690B00776972696E67007210
:1091FC00656376206572726F72203D2025640000D5
:10920C000000000000000000AD6B0B00D16B0B00E8
:10921C0003710B00DF6B0B00B16B0B000000000047
:10922C000000000000000000000000005D6C0B005E
:10923C00916C0B00296B0B00436B0B00996F0B00AF
:10924C006D6B0B000F6E0B00A16B0B00A16E0B0076
:10925C00E16C0B003D6E0B004D700B00DD6D0B00D7
:10926C00A36B0B00556B0B00E56B0B00C16C0B007B
:10927C00000000000000000009710B0075710B006C
:10928C004D710B00B1760B001D710B0039710B0089
:10929C002B710B0047710B000B710B000F710B0046
:1092AC000000000000000000AD710B00F7710B0016
:1092BC00CF710B00AF710B00D7710B00DF710B007E
:1092CC00E7710B00EF710B000000000000000000C4
:1092DC00B7720B001F730B00F5720B00B1760B000D
:1092EC00E7720B00B9720B00C9720B0019730B00FB
:1092FC00D9720B00B1720B000000000000000000DE
:10930C00C9730B00B9730B00BB730B0025592D25CA
:10931C006D2D25645425483A254D3A2553257A0060
:10932C0061736374696D65006170700000081018DA
:10933C00202830380000000000000000CF790B001E
:10934C00C5790B00BB790B00B1790B00A5790B002B
:10935C0099790B0089690B0091690B008D790B00D1
:10936C0085790B007B790B0071790B00C1690B00BF
:10937C0000537431395F53705F6D616B655F736857
:10938C00617265645F74616700000000D8930B0024
:10939C007D930B0038940B00AC930B005C940B008A
:1093AC004E31305F5F637878616269763131375F57
:1093BC005F636C6173735F747970655F696E666F00
:1093CC004500000000000000A0930B00A57C0B00E2
:1093DC00B97C0B004D7E0B004D7E0B00237D0B00EA
:1093EC00657C0B000B7D0B00CD7C0B00977C0B0080
:1093FC0038940B0008940B00A0930B004E31305F97
:10940C005F637878616269763132305F5F73695F70
:10941C00636C6173735F747970655F696E666F45B9
:10942C000000000000000000FC930B004D7D0B00C1
:10943C00617D0B004D7E0B004D7E0B00237D0B00E0
:10944C00657C0B00217E0B00AD7D0B00757D0B0048
:10945C00D8930B0064940B00537439747970655F66
:10946C00696E666F005245454E54206D616C6C6F91
:10947C006320737563636565646564002F6D6E743A
:10948C002F776F726B73706163652F776F726B736D
:10949C00706163652F4743432D31302D70697065C2
:1094AC006C696E652F6A656E6B696E732D474343ED
:1094BC002D31302D706970656C696E652D34385F97
:1094CC0032303230313132345F313630363138303F
:1094DC003634312F7372632F6E65776C69622F6E21
:1094EC0065776C69622F6C6962632F7374646C6945
:1094FC00622F72616E642E630000202020202020D9
:10950C002020202828282828202020202020202027
:10951C002020202020202020202088101010101027
:10952C001010101010101010101004040404040477
:10953C00040404041010101010101041414141415A
:10954C0041010101010101010101010101010101BF
:10955C000101010101101010101010424242424250
:10956C00420202020202020202020202020202028F
:10957C000202020202101010102000000000000075
:10958C0000000000000000000000000000000000CF
:10959C0000000000000000000000000000000000BF
:1095AC0000000000000000000000000000000000AF
:1095BC00000000000000000000000000000000009F
:1095CC00000000000000000000000000000000008F
:1095DC00000000000000000000000000000000007F
:1095EC00000000000000000000000000000000006F
:1095FC000000000000000000000000005D4A0B00AD
:10960C00996A0B00156B0B002D760B0039760B004D
:10961C00A1760B00D9770B00E9770B00D9790B00F9
:04962C00000000003A
:10963000040000001400000003000000474E550025
:10964000EBE33D2C6EC0C3E6E344BF14D23E7D0E77
:0496500016A0DF255C
:049654000000000012
:109658002C930B007CE503200000000000000000B4
:1096680000000000000000000000000000000000F2
:1096780000000000000000000000000000000000E2
:1096880000000000000000000000000000000000D2
:1096980000000000000000000000000000000000C2
:1096A80000000000000000000000000000000000B2
:0C96B8000000000000000000ECE70320B0
:1096C400FFFFFFFF00000102030405060708090A63
:1096D4000B0C0D0E0F101112131415161718191A5E
:0896E4001B1C1D1E1F202800A5
:0496EC007856341266
:04000003B000401CED
:00000001FF
